{
  "contractName": "Dex",
  "abi": [
    {
      "anonymous": false,
      "inputs": [
        {
          "indexed": true,
          "internalType": "address",
          "name": "previousOwner",
          "type": "address"
        },
        {
          "indexed": true,
          "internalType": "address",
          "name": "newOwner",
          "type": "address"
        }
      ],
      "name": "OwnershipTransferred",
      "type": "event"
    },
    {
      "inputs": [
        {
          "internalType": "bytes32",
          "name": "ticker",
          "type": "bytes32"
        },
        {
          "internalType": "address",
          "name": "tokenAddress",
          "type": "address"
        }
      ],
      "name": "addToken",
      "outputs": [],
      "stateMutability": "nonpayable",
      "type": "function"
    },
    {
      "inputs": [
        {
          "internalType": "address",
          "name": "",
          "type": "address"
        },
        {
          "internalType": "bytes32",
          "name": "",
          "type": "bytes32"
        }
      ],
      "name": "balances",
      "outputs": [
        {
          "internalType": "uint256",
          "name": "",
          "type": "uint256"
        }
      ],
      "stateMutability": "view",
      "type": "function",
      "constant": true
    },
    {
      "inputs": [
        {
          "internalType": "uint256",
          "name": "amount",
          "type": "uint256"
        },
        {
          "internalType": "bytes32",
          "name": "ticker",
          "type": "bytes32"
        }
      ],
      "name": "deposit",
      "outputs": [],
      "stateMutability": "nonpayable",
      "type": "function"
    },
    {
      "inputs": [],
      "name": "nextOrderId",
      "outputs": [
        {
          "internalType": "uint256",
          "name": "",
          "type": "uint256"
        }
      ],
      "stateMutability": "view",
      "type": "function",
      "constant": true
    },
    {
      "inputs": [
        {
          "internalType": "bytes32",
          "name": "",
          "type": "bytes32"
        },
        {
          "internalType": "uint256",
          "name": "",
          "type": "uint256"
        },
        {
          "internalType": "uint256",
          "name": "",
          "type": "uint256"
        }
      ],
      "name": "orderBook",
      "outputs": [
        {
          "internalType": "uint256",
          "name": "id",
          "type": "uint256"
        },
        {
          "internalType": "address",
          "name": "trader",
          "type": "address"
        },
        {
          "internalType": "enum Dex.Side",
          "name": "side",
          "type": "uint8"
        },
        {
          "internalType": "bytes32",
          "name": "ticker",
          "type": "bytes32"
        },
        {
          "internalType": "uint256",
          "name": "amount",
          "type": "uint256"
        },
        {
          "internalType": "uint256",
          "name": "price",
          "type": "uint256"
        }
      ],
      "stateMutability": "view",
      "type": "function",
      "constant": true
    },
    {
      "inputs": [],
      "name": "owner",
      "outputs": [
        {
          "internalType": "address",
          "name": "",
          "type": "address"
        }
      ],
      "stateMutability": "view",
      "type": "function",
      "constant": true
    },
    {
      "inputs": [],
      "name": "renounceOwnership",
      "outputs": [],
      "stateMutability": "nonpayable",
      "type": "function"
    },
    {
      "inputs": [
        {
          "internalType": "uint256",
          "name": "",
          "type": "uint256"
        }
      ],
      "name": "tokenList",
      "outputs": [
        {
          "internalType": "bytes32",
          "name": "",
          "type": "bytes32"
        }
      ],
      "stateMutability": "view",
      "type": "function",
      "constant": true
    },
    {
      "inputs": [
        {
          "internalType": "bytes32",
          "name": "",
          "type": "bytes32"
        }
      ],
      "name": "tokenMapping",
      "outputs": [
        {
          "internalType": "bytes32",
          "name": "ticker",
          "type": "bytes32"
        },
        {
          "internalType": "address",
          "name": "tokenAddress",
          "type": "address"
        }
      ],
      "stateMutability": "view",
      "type": "function",
      "constant": true
    },
    {
      "inputs": [
        {
          "internalType": "address",
          "name": "newOwner",
          "type": "address"
        }
      ],
      "name": "transferOwnership",
      "outputs": [],
      "stateMutability": "nonpayable",
      "type": "function"
    },
    {
      "inputs": [
        {
          "internalType": "uint256",
          "name": "amount",
          "type": "uint256"
        },
        {
          "internalType": "bytes32",
          "name": "ticker",
          "type": "bytes32"
        }
      ],
      "name": "withdraw",
      "outputs": [],
      "stateMutability": "nonpayable",
      "type": "function"
    },
    {
      "inputs": [
        {
          "internalType": "bytes32",
          "name": "ticker",
          "type": "bytes32"
        },
        {
          "internalType": "enum Dex.Side",
          "name": "side",
          "type": "uint8"
        }
      ],
      "name": "getOrderBook",
      "outputs": [
        {
          "components": [
            {
              "internalType": "uint256",
              "name": "id",
              "type": "uint256"
            },
            {
              "internalType": "address",
              "name": "trader",
              "type": "address"
            },
            {
              "internalType": "enum Dex.Side",
              "name": "side",
              "type": "uint8"
            },
            {
              "internalType": "bytes32",
              "name": "ticker",
              "type": "bytes32"
            },
            {
              "internalType": "uint256",
              "name": "amount",
              "type": "uint256"
            },
            {
              "internalType": "uint256",
              "name": "price",
              "type": "uint256"
            }
          ],
          "internalType": "struct Dex.Order[]",
          "name": "",
          "type": "tuple[]"
        }
      ],
      "stateMutability": "view",
      "type": "function",
      "constant": true
    },
    {
      "inputs": [
        {
          "internalType": "enum Dex.Side",
          "name": "side",
          "type": "uint8"
        },
        {
          "internalType": "bytes32",
          "name": "ticker",
          "type": "bytes32"
        },
        {
          "internalType": "uint256",
          "name": "amount",
          "type": "uint256"
        },
        {
          "internalType": "uint256",
          "name": "price",
          "type": "uint256"
        }
      ],
      "name": "createLimitOrder",
      "outputs": [],
      "stateMutability": "nonpayable",
      "type": "function"
    }
  ],
  "bytecode": "0x6080604052600060045534801561001557600080fd5b5061003261002761003760201b60201c565b61003f60201b60201c565b610103565b600033905090565b60008060009054906101000a900473ffffffffffffffffffffffffffffffffffffffff169050816000806101000a81548173ffffffffffffffffffffffffffffffffffffffff021916908373ffffffffffffffffffffffffffffffffffffffff1602179055508173ffffffffffffffffffffffffffffffffffffffff168173ffffffffffffffffffffffffffffffffffffffff167f8be0079c531659141344cd1fd0a4f28419497f9722a3daafe3b4186f6b6457e060405160405180910390a35050565b6122b580620001136000396000f3fe608060405234801561001057600080fd5b50600436106100cf5760003560e01c80638da5cb5b1161008c578063a8d2021a11610066578063a8d2021a14610218578063ba58ea6814610234578063c9630cb014610264578063f2fde38b14610280576100cf565b80638da5cb5b146101ae5780639776aacf146101cc5780639ead7222146101e8576100cf565b80630bb431b6146100d45780631f14df69146101095780632a58b33014610139578063667cb4ba146101575780636f3b62f914610188578063715018a6146101a4575b600080fd5b6100ee60048036038101906100e99190611853565b61029c565b6040516101009695949392919061197c565b60405180910390f35b610123600480360381019061011e9190611a09565b61032f565b6040516101309190611a49565b60405180910390f35b610141610354565b60405161014e9190611a49565b60405180910390f35b610171600480360381019061016c9190611a64565b61035a565b60405161017f929190611a91565b60405180910390f35b6101a2600480360381019061019d9190611adf565b61039e565b005b6101ac610db8565b005b6101b6610e40565b6040516101c39190611b46565b60405180910390f35b6101e660048036038101906101e19190611b61565b610e69565b005b61020260048036038101906101fd9190611ba1565b610fa4565b60405161020f9190611bce565b60405180910390f35b610232600480360381019061022d9190611be9565b610fc8565b005b61024e60048036038101906102499190611c29565b611273565b60405161025b9190611dcf565b60405180910390f35b61027e60048036038101906102799190611be9565b6113c2565b005b61029a60048036038101906102959190611df1565b6115dc565b005b600560205282600052604060002060205281600052604060002081815481106102c457600080fd5b906000526020600020906005020160009250925050508060000154908060010160009054906101000a900473ffffffffffffffffffffffffffffffffffffffff16908060010160149054906101000a900460ff16908060020154908060030154908060040154905086565b6003602052816000526040600020602052806000526040600020600091509150505481565b60045481565b60016020528060005260406000206000915090508060000154908060010160009054906101000a900473ffffffffffffffffffffffffffffffffffffffff16905082565b600060018111156103b2576103b16118f6565b5b8460018111156103c5576103c46118f6565b5b141561045f576103de81836116d490919063ffffffff16565b600360003373ffffffffffffffffffffffffffffffffffffffff1673ffffffffffffffffffffffffffffffffffffffff16815260200190815260200160002060007f4554480000000000000000000000000000000000000000000000000000000000815260200190815260200160002054101561045a57600080fd5b61050a565b600180811115610472576104716118f6565b5b846001811115610485576104846118f6565b5b14156105095781600360003373ffffffffffffffffffffffffffffffffffffffff1673ffffffffffffffffffffffffffffffffffffffff16815260200190815260200160002060007f4554480000000000000000000000000000000000000000000000000000000000815260200190815260200160002054101561050857600080fd5b5b5b6000600560008581526020019081526020016000206000866001811115610534576105336118f6565b5b81526020019081526020016000209050806040518060c0016040528060045481526020013373ffffffffffffffffffffffffffffffffffffffff168152602001876001811115610587576105866118f6565b5b81526020018681526020018581526020018481525090806001815401808255809150506001900390600052602060002090600502016000909190919091506000820151816000015560208201518160010160006101000a81548173ffffffffffffffffffffffffffffffffffffffff021916908373ffffffffffffffffffffffffffffffffffffffff16021790555060408201518160010160146101000a81548160ff02191690836001811115610641576106406118f6565b5b0217905550606082015181600201556080820151816003015560a08201518160040155505060008082805490501161067a57600061068c565b6001828054905061068b9190611e4d565b5b9050600060018111156106a2576106a16118f6565b5b8660018111156106b5576106b46118f6565b5b1415610a15575b6000811115610a10578181815481106106d8576106d7611e81565b5b906000526020600020906005020160040154826001836106f89190611e4d565b8154811061070957610708611e81565b5b906000526020600020906005020160040154111561072657610a10565b6000826001836107369190611e4d565b8154811061074757610746611e81565b5b90600052602060002090600502016040518060c0016040529081600082015481526020016001820160009054906101000a900473ffffffffffffffffffffffffffffffffffffffff1673ffffffffffffffffffffffffffffffffffffffff1673ffffffffffffffffffffffffffffffffffffffff1681526020016001820160149054906101000a900460ff1660018111156107e5576107e46118f6565b5b60018111156107f7576107f66118f6565b5b81526020016002820154815260200160038201548152602001600482015481525050905082828154811061082e5761082d611e81565b5b90600052602060002090600502018360018461084a9190611e4d565b8154811061085b5761085a611e81565b5b9060005260206000209060050201600082015481600001556001820160009054906101000a900473ffffffffffffffffffffffffffffffffffffffff168160010160006101000a81548173ffffffffffffffffffffffffffffffffffffffff021916908373ffffffffffffffffffffffffffffffffffffffff1602179055506001820160149054906101000a900460ff168160010160146101000a81548160ff02191690836001811115610912576109116118f6565b5b02179055506002820154816002015560038201548160030155600482015481600401559050508083838154811061094c5761094b611e81565b5b90600052602060002090600502016000820151816000015560208201518160010160006101000a81548173ffffffffffffffffffffffffffffffffffffffff021916908373ffffffffffffffffffffffffffffffffffffffff16021790555060408201518160010160146101000a81548160ff021916908360018111156109d6576109d56118f6565b5b0217905550606082015181600201556080820151816003015560a082015181600401559050508180610a0790611eb0565b925050506106bc565b610d98565b600180811115610a2857610a276118f6565b5b866001811115610a3b57610a3a6118f6565b5b1415610d97575b6000811115610d9657818181548110610a5e57610a5d611e81565b5b90600052602060002090600502016004015482600183610a7e9190611e4d565b81548110610a8f57610a8e611e81565b5b9060005260206000209060050201600401541015610aac57610d96565b600082600183610abc9190611e4d565b81548110610acd57610acc611e81565b5b90600052602060002090600502016040518060c0016040529081600082015481526020016001820160009054906101000a900473ffffffffffffffffffffffffffffffffffffffff1673ffffffffffffffffffffffffffffffffffffffff1673ffffffffffffffffffffffffffffffffffffffff1681526020016001820160149054906101000a900460ff166001811115610b6b57610b6a6118f6565b5b6001811115610b7d57610b7c6118f6565b5b815260200160028201548152602001600382015481526020016004820154815250509050828281548110610bb457610bb3611e81565b5b906000526020600020906005020183600184610bd09190611e4d565b81548110610be157610be0611e81565b5b9060005260206000209060050201600082015481600001556001820160009054906101000a900473ffffffffffffffffffffffffffffffffffffffff168160010160006101000a81548173ffffffffffffffffffffffffffffffffffffffff021916908373ffffffffffffffffffffffffffffffffffffffff1602179055506001820160149054906101000a900460ff168160010160146101000a81548160ff02191690836001811115610c9857610c976118f6565b5b021790555060028201548160020155600382015481600301556004820154816004015590505080838381548110610cd257610cd1611e81565b5b90600052602060002090600502016000820151816000015560208201518160010160006101000a81548173ffffffffffffffffffffffffffffffffffffffff021916908373ffffffffffffffffffffffffffffffffffffffff16021790555060408201518160010160146101000a81548160ff02191690836001811115610d5c57610d5b6118f6565b5b0217905550606082015181600201556080820151816003015560a082015181600401559050508180610d8d90611eb0565b92505050610a42565b5b5b60046000815480929190610dab90611eda565b9190505550505050505050565b610dc06116ea565b73ffffffffffffffffffffffffffffffffffffffff16610dde610e40565b73ffffffffffffffffffffffffffffffffffffffff1614610e34576040517f08c379a0000000000000000000000000000000000000000000000000000000008152600401610e2b90611f80565b60405180910390fd5b610e3e60006116f2565b565b60008060009054906101000a900473ffffffffffffffffffffffffffffffffffffffff16905090565b610e716116ea565b73ffffffffffffffffffffffffffffffffffffffff16610e8f610e40565b73ffffffffffffffffffffffffffffffffffffffff1614610ee5576040517f08c379a0000000000000000000000000000000000000000000000000000000008152600401610edc90611f80565b60405180910390fd5b60405180604001604052808381526020018273ffffffffffffffffffffffffffffffffffffffff16815250600160008481526020019081526020016000206000820151816000015560208201518160010160006101000a81548173ffffffffffffffffffffffffffffffffffffffff021916908373ffffffffffffffffffffffffffffffffffffffff16021790555090505060028290806001815401808255809150506001900390600052602060002001600090919091909150555050565b60028181548110610fb457600080fd5b906000526020600020016000915090505481565b80600073ffffffffffffffffffffffffffffffffffffffff166001600083815260200190815260200160002060010160009054906101000a900473ffffffffffffffffffffffffffffffffffffffff1673ffffffffffffffffffffffffffffffffffffffff16141561106f576040517f08c379a000000000000000000000000000000000000000000000000000000000815260040161106690611fec565b60405180910390fd5b82600360003373ffffffffffffffffffffffffffffffffffffffff1673ffffffffffffffffffffffffffffffffffffffff1681526020019081526020016000206000848152602001908152602001600020541015611102576040517f08c379a00000000000000000000000000000000000000000000000000000000081526004016110f990612058565b60405180910390fd5b61116583600360003373ffffffffffffffffffffffffffffffffffffffff1673ffffffffffffffffffffffffffffffffffffffff1681526020019081526020016000206000858152602001908152602001600020546117b690919063ffffffff16565b600360003373ffffffffffffffffffffffffffffffffffffffff1673ffffffffffffffffffffffffffffffffffffffff1681526020019081526020016000206000848152602001908152602001600020819055506001600083815260200190815260200160002060010160009054906101000a900473ffffffffffffffffffffffffffffffffffffffff1673ffffffffffffffffffffffffffffffffffffffff1663a9059cbb33856040518363ffffffff1660e01b815260040161122a929190612078565b6020604051808303816000875af1158015611249573d6000803e3d6000fd5b505050506040513d601f19601f8201168201806040525081019061126d91906120d9565b50505050565b606060056000848152602001908152602001600020600083600181111561129d5761129c6118f6565b5b8152602001908152602001600020805480602002602001604051908101604052809291908181526020016000905b828210156113b657838290600052602060002090600502016040518060c0016040529081600082015481526020016001820160009054906101000a900473ffffffffffffffffffffffffffffffffffffffff1673ffffffffffffffffffffffffffffffffffffffff1673ffffffffffffffffffffffffffffffffffffffff1681526020016001820160149054906101000a900460ff166001811115611373576113726118f6565b5b6001811115611385576113846118f6565b5b81526020016002820154815260200160038201548152602001600482015481525050815260200190600101906112cb565b50505050905092915050565b80600073ffffffffffffffffffffffffffffffffffffffff166001600083815260200190815260200160002060010160009054906101000a900473ffffffffffffffffffffffffffffffffffffffff1673ffffffffffffffffffffffffffffffffffffffff161415611469576040517f08c379a000000000000000000000000000000000000000000000000000000000815260040161146090611fec565b60405180910390fd5b6001600083815260200190815260200160002060010160009054906101000a900473ffffffffffffffffffffffffffffffffffffffff1673ffffffffffffffffffffffffffffffffffffffff166323b872dd3330866040518463ffffffff1660e01b81526004016114dc93929190612106565b6020604051808303816000875af11580156114fb573d6000803e3d6000fd5b505050506040513d601f19601f8201168201806040525081019061151f91906120d9565b5061158383600360003373ffffffffffffffffffffffffffffffffffffffff1673ffffffffffffffffffffffffffffffffffffffff1681526020019081526020016000206000858152602001908152602001600020546117cc90919063ffffffff16565b600360003373ffffffffffffffffffffffffffffffffffffffff1673ffffffffffffffffffffffffffffffffffffffff168152602001908152602001600020600084815260200190815260200160002081905550505050565b6115e46116ea565b73ffffffffffffffffffffffffffffffffffffffff16611602610e40565b73ffffffffffffffffffffffffffffffffffffffff1614611658576040517f08c379a000000000000000000000000000000000000000000000000000000000815260040161164f90611f80565b60405180910390fd5b600073ffffffffffffffffffffffffffffffffffffffff168173ffffffffffffffffffffffffffffffffffffffff1614156116c8576040517f08c379a00000000000000000000000000000000000000000000000000000000081526004016116bf906121af565b60405180910390fd5b6116d1816116f2565b50565b600081836116e291906121cf565b905092915050565b600033905090565b60008060009054906101000a900473ffffffffffffffffffffffffffffffffffffffff169050816000806101000a81548173ffffffffffffffffffffffffffffffffffffffff021916908373ffffffffffffffffffffffffffffffffffffffff1602179055508173ffffffffffffffffffffffffffffffffffffffff168173ffffffffffffffffffffffffffffffffffffffff167f8be0079c531659141344cd1fd0a4f28419497f9722a3daafe3b4186f6b6457e060405160405180910390a35050565b600081836117c49190611e4d565b905092915050565b600081836117da9190612229565b905092915050565b600080fd5b6000819050919050565b6117fa816117e7565b811461180557600080fd5b50565b600081359050611817816117f1565b92915050565b6000819050919050565b6118308161181d565b811461183b57600080fd5b50565b60008135905061184d81611827565b92915050565b60008060006060848603121561186c5761186b6117e2565b5b600061187a86828701611808565b935050602061188b8682870161183e565b925050604061189c8682870161183e565b9150509250925092565b6118af8161181d565b82525050565b600073ffffffffffffffffffffffffffffffffffffffff82169050919050565b60006118e0826118b5565b9050919050565b6118f0816118d5565b82525050565b7f4e487b7100000000000000000000000000000000000000000000000000000000600052602160045260246000fd5b60028110611936576119356118f6565b5b50565b600081905061194782611925565b919050565b600061195782611939565b9050919050565b6119678161194c565b82525050565b611976816117e7565b82525050565b600060c08201905061199160008301896118a6565b61199e60208301886118e7565b6119ab604083018761195e565b6119b8606083018661196d565b6119c560808301856118a6565b6119d260a08301846118a6565b979650505050505050565b6119e6816118d5565b81146119f157600080fd5b50565b600081359050611a03816119dd565b92915050565b60008060408385031215611a2057611a1f6117e2565b5b6000611a2e858286016119f4565b9250506020611a3f85828601611808565b9150509250929050565b6000602082019050611a5e60008301846118a6565b92915050565b600060208284031215611a7a57611a796117e2565b5b6000611a8884828501611808565b91505092915050565b6000604082019050611aa6600083018561196d565b611ab360208301846118e7565b9392505050565b60028110611ac757600080fd5b50565b600081359050611ad981611aba565b92915050565b60008060008060808587031215611af957611af86117e2565b5b6000611b0787828801611aca565b9450506020611b1887828801611808565b9350506040611b298782880161183e565b9250506060611b3a8782880161183e565b91505092959194509250565b6000602082019050611b5b60008301846118e7565b92915050565b60008060408385031215611b7857611b776117e2565b5b6000611b8685828601611808565b9250506020611b97858286016119f4565b9150509250929050565b600060208284031215611bb757611bb66117e2565b5b6000611bc58482850161183e565b91505092915050565b6000602082019050611be3600083018461196d565b92915050565b60008060408385031215611c0057611bff6117e2565b5b6000611c0e8582860161183e565b9250506020611c1f85828601611808565b9150509250929050565b60008060408385031215611c4057611c3f6117e2565b5b6000611c4e85828601611808565b9250506020611c5f85828601611aca565b9150509250929050565b600081519050919050565b600082825260208201905092915050565b6000819050602082019050919050565b611c9e8161181d565b82525050565b611cad816118d5565b82525050565b611cbc8161194c565b82525050565b611ccb816117e7565b82525050565b60c082016000820151611ce76000850182611c95565b506020820151611cfa6020850182611ca4565b506040820151611d0d6040850182611cb3565b506060820151611d206060850182611cc2565b506080820151611d336080850182611c95565b5060a0820151611d4660a0850182611c95565b50505050565b6000611d588383611cd1565b60c08301905092915050565b6000602082019050919050565b6000611d7c82611c69565b611d868185611c74565b9350611d9183611c85565b8060005b83811015611dc2578151611da98882611d4c565b9750611db483611d64565b925050600181019050611d95565b5085935050505092915050565b60006020820190508181036000830152611de98184611d71565b905092915050565b600060208284031215611e0757611e066117e2565b5b6000611e15848285016119f4565b91505092915050565b7f4e487b7100000000000000000000000000000000000000000000000000000000600052601160045260246000fd5b6000611e588261181d565b9150611e638361181d565b925082821015611e7657611e75611e1e565b5b828203905092915050565b7f4e487b7100000000000000000000000000000000000000000000000000000000600052603260045260246000fd5b6000611ebb8261181d565b91506000821415611ecf57611ece611e1e565b5b600182039050919050565b6000611ee58261181d565b91507fffffffffffffffffffffffffffffffffffffffffffffffffffffffffffffffff821415611f1857611f17611e1e565b5b600182019050919050565b600082825260208201905092915050565b7f4f776e61626c653a2063616c6c6572206973206e6f7420746865206f776e6572600082015250565b6000611f6a602083611f23565b9150611f7582611f34565b602082019050919050565b60006020820190508181036000830152611f9981611f5d565b9050919050565b7f546f6b656e20646f65736e277420657869737400000000000000000000000000600082015250565b6000611fd6601383611f23565b9150611fe182611fa0565b602082019050919050565b6000602082019050818103600083015261200581611fc9565b9050919050565b7f62616c616e6365206e6f742073756666696369656e7400000000000000000000600082015250565b6000612042601683611f23565b915061204d8261200c565b602082019050919050565b6000602082019050818103600083015261207181612035565b9050919050565b600060408201905061208d60008301856118e7565b61209a60208301846118a6565b9392505050565b60008115159050919050565b6120b6816120a1565b81146120c157600080fd5b50565b6000815190506120d3816120ad565b92915050565b6000602082840312156120ef576120ee6117e2565b5b60006120fd848285016120c4565b91505092915050565b600060608201905061211b60008301866118e7565b61212860208301856118e7565b61213560408301846118a6565b949350505050565b7f4f776e61626c653a206e6577206f776e657220697320746865207a65726f206160008201527f6464726573730000000000000000000000000000000000000000000000000000602082015250565b6000612199602683611f23565b91506121a48261213d565b604082019050919050565b600060208201905081810360008301526121c88161218c565b9050919050565b60006121da8261181d565b91506121e58361181d565b9250817fffffffffffffffffffffffffffffffffffffffffffffffffffffffffffffffff048311821515161561221e5761221d611e1e565b5b828202905092915050565b60006122348261181d565b915061223f8361181d565b9250827fffffffffffffffffffffffffffffffffffffffffffffffffffffffffffffffff0382111561227457612273611e1e565b5b82820190509291505056fea2646970667358221220d193a6dc166ffab8ae0a60d3b4bbe1866a280f65312d6396e87ca44933d9402264736f6c634300080c0033",
  "immutableReferences": {},
  "source": "// SPDX-License-Identifier: MIT\n\npragma solidity >=0.8.0 <0.9.0;\npragma abicoder v2;\nimport './Wallet.sol';\nimport \"../node_modules/@openzeppelin/contracts/utils/math/SafeMath.sol\";\n\n\ncontract Dex is Wallet {\n    using SafeMath for uint256;\n\n    enum Side {\n        BUY,\n        SELL\n    }\n\n    struct Order {\n        uint id;\n        address trader;\n        Side side;\n        bytes32 ticker;\n        uint amount;\n        uint price;\n    }\n\n    uint public nextOrderId = 0;\n\n    mapping(bytes32 => mapping(uint => Order[])) public orderBook;\n    \n\n    function getOrderBook(bytes32 ticker, Side side) view public returns(Order[] memory){\n        return orderBook[ticker][uint(side)];\n    }\n\n    function createLimitOrder(Side side, bytes32 ticker, uint amount, uint price) public {\n        if(side == Side.BUY){\n            require(balances[msg.sender][\"ETH\"] >= amount.mul(price));\n        } \n        else if(side == Side.SELL){\n            require(balances[msg.sender][\"ETH\"] >= amount);\n        }\n        Order[] storage orders = orderBook[ticker][uint(side)];\n        orders.push(\n            Order(nextOrderId, msg.sender, side, ticker, amount, price)\n        );\n\n        // Bubble Sort\n        uint i = orders.length > 0 ? orders.length - 1 : 0;\n\n        if(side == Side.BUY){\n            while(i > 0){\n                if(orders[i - 1].price > orders[i].price){\n                    break;\n                }\n                Order memory orderToMove = orders[i - 1];\n                orders[i - 1] = orders[i];\n                orders[i] = orderToMove;\n                i--;\n            }\n        } \n        else if(side == Side.SELL){\n            while(i > 0){\n                if(orders[i - 1].price < orders[i].price){\n                    break;\n                }\n                Order memory orderToMove = orders[i - 1];\n                orders[i - 1] = orders[i];\n                orders[i] = orderToMove;\n                i--;\n            }\n        }\n\n        nextOrderId++;   \n    }   \n}\n",
  "sourcePath": "/Users/javieraceves/Desktop/Cursos/Moralis/dex/contracts/Dex.sol",
  "compiler": {
    "name": "solc",
    "version": "0.8.12+commit.f00d7308.Emscripten.clang"
  },
  "schemaVersion": "3.4.4",
  "updatedAt": "2022-02-18T04:23:28.477Z",
  "networkType": "ethereum",
  "devdoc": {
    "kind": "dev",
    "methods": {
      "owner()": {
        "details": "Returns the address of the current owner."
      },
      "renounceOwnership()": {
        "details": "Leaves the contract without owner. It will not be possible to call `onlyOwner` functions anymore. Can only be called by the current owner. NOTE: Renouncing ownership will leave the contract without an owner, thereby removing any functionality that is only available to the owner."
      },
      "transferOwnership(address)": {
        "details": "Transfers ownership of the contract to a new account (`newOwner`). Can only be called by the current owner."
      }
    },
    "version": 1
  },
  "userdoc": {
    "kind": "user",
    "methods": {},
    "version": 1
  }
}